:100000000C942A000C9447000C9447000C94470071
:100010000C9447000C9447000C9447000C94470044
:100020000C9447000C9447000C9447000C94470034
:100030000C9447000C9447000C9447000C94470024
:100040000C9447000C9447000C9447000C94470014
:100050000C94470011241FBECFE5D8E0DEBFCDBF12
:1000600010E0A0E6B0E0ECE7F7E002C005900D92EA
:10007000A63AB107D9F710E0A6EAB0E001C01D9298
:10008000A63BB107E1F70E947E010C94BC030C94DF
:10009000000084B38F7084BBC19AC09881E08A95B8
:1000A000F1F721E0C29A822F8A95F1F783B3807F1E
:1000B000922F9A95F1F7C298922F9A95F1F7C29ADA
:1000C000922F9A95F1F793B3922F9A95F1F7C298E0
:1000D000922F9A95F1F787FDE5CFC19884B3806F91
:1000E00084BB0895382F662311F4C09801C0C09ACC
:1000F00021E0822F8A95F1F7C29A85B3932F907FE2
:100100008F70982B95BB822F8A95F1F7C298822F1A
:100110008A95F1F7C29A85B33295307F8F70832B21
:1001200085BB822F8A95F1F7C2982A95F1F70E9434
:1001300049000895CF93DF93EC0110C0853251F44C
:10014000219688818053883028F085E261E00E9402
:100150007200888161E00E94720021968881882364
:1001600069F7DF91CF910895EF92FF920F931F935C
:10017000DF93CF9300D000D00F92CDB7DEB79C01B4
:100180008B01FE01319685E0DF011D928A95E9F72A
:10019000FE0135960DC0C9016AE070E00E9495032A
:1001A0008083C9016AE070E00E9495039B0131974A
:1001B0002115310581F7BFEF0F3F1B0779F420E0D0
:1001C00030E0AE014F5F5F4F02C02F5F3F4FFA013B
:1001D000E20FF31F80818823C1F304C025E030E0E3
:1001E000201B310B7E010894E11CF11CE20EF31E72
:1001F000890109C0F70181917F01805D61E00E9462
:1002000072000F5F1F4F05301105A4F30F900F9080
:100210000F900F900F90CF91DF911F910F91FF9052
:10022000EF900895843178F4623031F0633031F02A
:10023000613029F4806403C08C5E01C08C5A8068F0
:1002400060E00E94720008951F93CF93DF93182FF0
:1002500088E99AE30197F1F784B3806F84BBBA9A77
:10026000B89AB99A85B38F7085BBC298C198C09867
:1002700081E0982F9A95F1F7C29AAD9A982F9A95A6
:10028000F1F7C2988A95F1F70E944900812F8C609E
:1002900060E00E94720088E260E00E94720080E4E8
:1002A00060E00E947200CDE6D0E0899161E00E949A
:1002B000720080E0C53AD807C1F780E090E060E0C6
:1002C00070E00E941201DF91CF911F9108951ABA38
:1002D00080E487B987E886B9089527B18770907060
:1002E000287F282B27B9369A349BFECF94B185B14D
:1002F000382F20E0290F311DC90108954F925F92D8
:100300006F927F928F929F92AF92BF92CF92DF9225
:10031000EF92FF920F931F93DF93CF93CDB7DEB78A
:10032000C255D0400FB6F894DEBF0FBECDBF14BA91
:100330008FEF87BB81BB80E00E94240181E060E0F9
:100340000E9472001ABA80E487B987E886B94E0124
:100350000894811C911C93E5492E512C4C0E5D1E76
:1003600082E3682E712C81E090E00E946D017C0197
:1003700082E090E00E946D015C0180E060E00E94FC
:10038000120180E690E00E949A0083E060E00E9403
:1003900012010027F7FC0095102FC801B7010E9439
:1003A000A60220E030E048EC5DE30E940A030E94D0
:1003B0007302DC01CB0162E070E00E94B40085E0D2
:1003C00060E00E94120184E690E00E949A008AE0B8
:1003D00060E00E94120186E690E00E949A008DE0A3
:1003E00060E00E941201CC24B7FCC094DC2CC60152
:1003F000B5010E94A60220E030E048EC5DE30E94D7
:100400000A030E947302DC01CB0162E070E00E94EB
:10041000B4008FE060E00E94120184E690E00E9448
:100420009A007401840180E090E00E946D01F8015F
:10043000819391938F01E415F505A9F729813A81FC
:10044000F70180819181281739070CF49C0182E023
:1004500090E0E80EF91EE016F10691F7B901882741
:1004600077FD8095982F0E94A6022BE93EE04EEA88
:100470005BE30E940A036093A6007093A700809339
:10048000A8009093A9000E9473027093AB00609340
:10049000AA0080E061E00E9412016091A6007091C4
:1004A000A7008091A8009091A90020E030E04AE7E1
:1004B00054E40E940A030E947302DC01CB0164E051
:1004C00070E00E94B40085E061E00E9412018AE6BB
:1004D00090E00E949A0088E59BE1F3013197F1F7E3
:1004E0000197D9F740CF04D06894B1118DC0089519
:1004F00070D088F09F5790F0B92F9927B751A0F08E
:10050000D1F0660F771F881F991F1AF0BA95C9F7A7
:1005100012C0B13081F077D0B1E0089574C0672F78
:10052000782F8827B85F39F0B93FCCF38695779557
:100530006795B395D9F73EF4909580957095619540
:100540007F4F8F4F9F4F0895E89409C097FB3EF46B
:1005500090958095709561957F4F8F4F9F4F992310
:10056000A9F0F92F96E9BB279395F695879577958E
:100570006795B795F111F8CFFAF4BB0F11F460FF4E
:100580001BC06F5F7F4F8F4F9F4F16C0882311F0A6
:1005900096E911C0772321F09EE8872F762F05C0BA
:1005A000662371F096E8862F70E060E02AF09A9555
:1005B000660F771F881FDAF7880F9695879597F94A
:1005C000089557FD9058440F551F59F05F3F71F043
:1005D0004795880F97FB991F61F09F3F79F08795AA
:1005E0000895121613061406551FF2CF4695F1DF33
:1005F00008C0161617061806991FF1CF86957105C3
:10060000610508940895E894BB2766277727CB01F6
:1006100097F908950BD078C069D028F06ED018F003
:10062000952309F05AC05FC01124EECFCADFA0F3B2
:10063000959FD1F3950F50E0551F629FF001729F77
:10064000BB27F00DB11D639FAA27F00DB11DAA1F96
:10065000649F6627B00DA11D661F829F2227B00DE3
:10066000A11D621F739FB00DA11D621F839FA00D6E
:10067000611D221F749F3327A00D611D231F849FBE
:10068000600D211D822F762F6A2F11249F57504015
:100690008AF0E1F088234AF0EE0FFF1FBB1F661FB0
:1006A000771F881F91505040A9F79E3F510570F069
:1006B00014C0AACF5F3FECF3983EDCF386957795A4
:1006C0006795B795F795E7959F5FC1F7FE2B880F64
:1006D000911D9695879597F9089597F99F6780E8FA
:1006E00070E060E008959FEF80EC089500240A9484
:1006F0001616170618060906089500240A941216FD
:100700001306140605060895092E0394000C11F42F
:10071000882352F0BB0F40F4BF2B11F460FF04C0DC
:100720006F5F7F4F8F4F9F4F089597FB092E0726CE
:100730000AD077FD04D00CD006D000201AF47095B2
:1007400061957F4F0895F6F7909581959F4F089595
:10075000AA1BBB1B51E107C0AA1FBB1FA617B707E7
:1007600010F0A61BB70B881F991F5A95A9F7809503
:0C0770009095BC01CD010895F894FFCFD6
:10077C0042313A00250042323A006D41000C12120F
:10078C000C000000000004021F020400000A1511F6
:10079C000A040000000305090B0B1818001F0E0EAD
:1007AC00040404040401010505151515000E1111AE
:0607BC001F1F1F1F0000BB
:00000001FF
